:020000040800F2
:1000000050110020150300086D4B0008654B0008D7
:10001000694B0008D91F0008D954000800000000EF
:10002000000000000000000000000000014C00087B
:10003000DD1F0008000000006F4B0008034C0008A3
:10004000390300083903000839030008F14B0008A0
:100050003903000839030008390300083903000890
:100060003903000839030008390300083903000880
:100070003903000839030008390300083903000870
:100080003903000839030008390300083903000860
:100090003903000839030008390300083903000850
:1000A0003903000839030008390300083903000840
:1000B0003903000839030008214C000839030008FF
:1000C0003903000839030008390300083903000820
:1000D000390300088954000839030008390300086F
:1000E00039030008714B0008390300083903000880
:1000F00039030008390300083903000839030008F0
:1001000039030008390300083903000839030008DF
:10011000194F0008390300083903000839030008A3
:1001200039030008390300083903000839030008BF
:1001300039030008390300083903000839030008AF
:10014000390300083903000839030008390300089F
:10015000390300083903000839030008390300088F
:10016000390300083903000839030008390300087F
:1001700039030008390300083903000800000000B3
:10018000390300083903000800F002F800F0B2F863
:100190000AA090E8000C82448344AAF10107DA45E2
:1001A00001D100F0A7F8AFF2090EBAE80F0013F082
:1001B000010F18BFFB1A43F0010318476CF200004F
:1001C0008CF200000A444FF0000C10F8013B13F0D1
:1001D000070408BF10F8014B1D1108BF10F8015BA0
:1001E000641E05D010F8016B641E01F8016BF9D193
:1001F00013F0080F1EBF10F8014BAD1C0C1B09D1EA
:100200006D1E58BF01F801CBFAD505E014F8016B5B
:1002100001F8016B6D1EF9D59142D6D370470000ED
:100220000023002400250026103A28BF78C1FBD8FF
:10023000520728BF30C148BF0B6070476E2900F0DD
:10024000E783702900F0038266290BF0BA856529DF
:100250000BF0B78567290BF0B48561290BF0B385E6
:1002600003681B0A28BF41F08001692900F07481EE
:10027000642900F07181752900F06E816F2900F00A
:10028000DE84782900F0CF81E92900F07984E4291F
:1002900000F07684F52900F07384EF2900F0DB8408
:1002A000F82900F0CE810368DB0928BF41F0800106
:1002B000632900F0E883732900F0ED83E32901F05E
:1002C000B180F32901F0B680002070471FB50BF014
:1002D0006EFD01F005F90400002000210BF070FB19
:1002E000401C6060002000210BF054FBE0601FBD4B
:1002F00010B510BD01F0C6F81146FFF7E7FF09F091
:10030000EDFD01F0A3F903B4FFF7F2FF03BC05F024
:1003100020F900000C48016841F4700101600B48AD
:1003200080470B480047FEE7FEE7FEE7FEE7FEE7F3
:10033000FEE7FEE7FEE7FEE7FEE7000005480649A8
:10034000044A064B7047000088ED00E00D4C0008A1
:1003500089010008500D002050110020500D002090
:10036000704753EA020C00F069802DE9F04B4FF022
:100370000006002B1FBFB3FA83F503FA05F424FA35
:1003800005F65E4012BF1643B2FA82F502FA05F492
:10039000C5F120051EBF22FA05FC44EA0C042035F5
:1003A00056EA044C4FEA144418BF641C4FF000088E
:1003B0004FF00009904271EB030C39D3002919BFAB
:1003C000B1FA81F701FA07F6B0FA80F700FA07F6FA
:1003D000C7F120071EBF20FA07FC46EA0C062037AB
:1003E000B6FBF4FCA7EB0507103F07F01F0BCBF1A2
:1003F00020060CFA0BFB2CFA06F644BFB346002687
:10040000202FA4BF5E464FF0000B5BEA060C08BF2E
:100410004FF0010B19EB0B09ABFB027C48EB060814
:10042000C01B06FB02CC0BFB03CC71EB0C01C1E73C
:100430000B46024641464846BDE8F08B13B54FF0E7
:1004400000004FF00001AFF30080BDE81C40704792
:100450001CB50C46064B7B4469460090204600F0D4
:10046000F0FA04460020694600F0FEFA20461CBD62
:100470000F0600000FB4044910B503AA029800F05B
:100480000FFB10BC5DF814FB080000200FB41CB576
:10049000084B06AA7B4469460090059800F0D1FA03
:1004A00004460020694600F0DFFA20461CBC5DF8D7
:1004B00014FB0000D105000070B504468569006892
:1004C000C10601D5302600E02026C00707D070BD48
:1004D000D4E9012130469047206A401C20626D1EFD
:1004E000F6D570BD70B5044685690078C00707D1A0
:1004F00070BDD4E9012120209047206A401C206271
:100500006D1EF6D570BD70B50C460546012A05D0A6
:100510002878800600D5EA69002302E0012305E07F
:100520005B1C934202D2E05C0028F9D1A869E6186E
:10053000C01AA861286A184428622846FFF7BCFF41
:1005400004E0D5E9012114F8010B9047B442F8D337
:100550002846FFF7C7FF70BD2DE9F041064600248D
:1005600010687529314616A510D000F0E6F900286C
:1005700002DA404213A507E031688A0701D512A5C7
:1005800002E0490704D511A5012401E000F0DEF9DD
:1005900000210A2206F1240709E0B0FBF2FCB0FBBF
:1005A000F2F302FB1C00303078541846491C002836
:1005B000F3D123462A463046BDE8F04100F0CFB9DA
:1005C000000000002D0000002B00000020000000B3
:1005D000F0B40D460188090502D5214C7C4402E0A7
:1005E0001F4C7C440E34002100F1240608E002F088
:1005F0000F071209E75D42EA03721B097754491C91
:1006000052EA0307F3D102780023120704D5702DB4
:1006100006D009B1022311342246F0BC00F09FB984
:1006200001231034F8E770B504460D4621461068E2
:1006300000F08CF9024629462046BDE870400023B0
:10064000C6E7D21D22F00703D3E90023C0E7036801
:10065000126843F0200303600823C3610023B7E757
:100660008EE700002DE9F05F894604464FF0000A4E
:10067000DFF874B1FB44C0F820A02046E168884749
:10068000002874D0252806D0D4E901219047206A9B
:10069000401C2062F1E700265F462046E16888475B
:1006A0002028054607DB312D05D2781910F8200CDB
:1006B00008B10643F1E7B00701D526F00406C4F8F7
:1006C0001CA00027C4F818A02A2D09D0284604F041
:1006D00039FF38B304EB8708303DC8F8185019E0EB
:1006E00059F8041B204604EB87029161E1688847B2
:1006F000012F054618D1E069002820DA26F02006EF
:100700001DE0D8F8180000EB800005EB4000303801
:10071000C8F818002046E1688847054604F012FF33
:100720000028EED1012F0AD02E2D08D12046E168F5
:1007300088477F1C0546022F46F02006C4DBA069CF
:10074000002803DA404246F00106A061F00701D01C
:1007500026F010066C2D0BD0682D09D04C2D39D009
:100760006A2D35D0742D35D07A2D33D016E038E08F
:10077000E1682F4620468847B842054609D16C2FCC
:1007800026D04FF48060E16806432046884705463E
:1007900004E06C2F1AD04FF4807006430DB3A5F11E
:1007A0004100192802D8203546F400664A462946F9
:1007B000204626604E46FFF741FD80B101280BD050
:1007C000F61D26F0070000F1080956E74020E4E78F
:1007D0008020D8E70020D6E706F104094DE7284637
:1007E00052E7206ABDE8F09F1EE7000030B50546DD
:1007F0000B462A4613F8014B12F8010B08B1A04230
:10080000F8D01CB1002802D06D1CF1E7284630BD9D
:1008100010B5431C02E010F8011B71B18107FAD139
:100820004FF0013202C88C1A8C4314EAC211F9D07D
:10083000C01A0A0603D0C01E10BDC01A10BD0A049B
:1008400001D0801E10BD0902FCD0401E10BD40EA40
:10085000010370B59B072ED14FF00136042A2AD32D
:1008600008C810C99D1B9D43121F15EAC61517D055
:10087000D8B2E1B2401A50EA056110D198B2A1B2E3
:10088000401A50EA05410AD123F07F4024F07F410D
:10089000401A50EA052102D1180EA0EB146070BD79
:1008A000A342DBD018BA21BA884201D9012070BD19
:1008B0004FF0FF3070BD0AB9002070BD10F8013B49
:1008C00011F8014B63B1A3420AD1521E08D010F8AF
:1008D000013B11F8014B1BB1A34201D1521EEDD1D6
:1008E000181B70BD4FF0000200B5134694469646A3
:1008F000203922BFA0E80C50A0E80C50B1F1200133
:10090000BFF4F7AF090728BFA0E80C5048BF0CC0E0
:100910005DF804EB890028BF40F8042B08BF70473E
:1009200048BF20F8022B11F0804F18BF00F8012BB0
:100930007047704770477047704709684A0501D58E
:1009400040B27047C905FCD500B2704709684A0536
:1009500001D5C0B27047C905FCD580B270472DE9FA
:10096000F0470D4699469246044600F12408016876
:10097000880604D5E06921F01001216000E0012023
:10098000A84201DD471B00E00027A1697A1902EBAC
:100990000900081AA0612078C00602D42046FFF79B
:1009A0008BFD002608E0D4E901211AF806009047E3
:1009B000206A401C761C20624E45F4DB2078C0067D
:1009C0000AD52046FFF778FD06E0D4E90121302062
:1009D0009047206A401C2062381EA7F10107F4DC12
:1009E00007E0D4E9012118F805009047206A401C6F
:1009F0002062281EA5F10105F3DC2046FFF772FDF9
:100A00002078000602D50220BDE8F0870120FBE730
:100A100011680268006A530501D508700AE0D30521
:100A200001D5088006E0130603D5C217C1E900020C
:100A300000E008600120704701694A1C02610878E3
:100A4000704700B58FB0CDE901310021059105490E
:100A50007944CDE9031011466846FFF703FE0FB055
:100A600000BD0000E5FFFFFF0A6802F8010B0A6005
:100A7000704710B5436913B1AFF3008001E0FFF791
:100A800042FD012010BD127800F124010A700022FD
:100A90004A700122EDE711684FF0FF32E9E70000EC
:100AA000074B70B50D467B44FFF7CBFF0446284645
:100AB00000F0C4FC10B14FF0FF3070BD204670BD97
:100AC000475900002DE9FF5F15468A460446DFF8C6
:100AD000AC80F8440027D8E900103E46CDE900106C
:100AE00010E03AF816106A4602A800F0ABFC411C70
:100AF00007D02178890603D5E269391891420DD8CB
:100B00000744761C2078800602D5E069B84205DDEE
:100B1000AE42E6DB3AF816000028E2D1A069C01B1D
:100B2000A0612046FFF7C8FCD8E90010CDE900100D
:100B3000002017E03AF818106A4602A800F082FC7C
:100B4000B0F1FF3F81460BD000250DF1080B05E009
:100B5000D4E901211BF8050090476D1C4D45F7D3E2
:100B600008F10100B0428046E4DB206A384420628C
:100B70002046FFF7B7FCBDE8FF9F0000D2E200006F
:100B80002DE9F0418046D21D22F007020025D2E96E
:100B90000002F52915A614D0011E72F1000106DA33
:100BA0000023D0EB030063EB020211A608E0D8F8A3
:100BB00000108B0701D50FA602E0490701D50EA64C
:100BC00001251146002408F1240704E000F04EF846
:100BD00030323A55641C50EA0102F7D12B463246B6
:100BE00021464046BDE8F041FFF7B9BE00000000D5
:100BF0002D0000002B0000002000000030B4002178
:100C000000F1240408E002F00705D208303542EA7A
:100C10004372DB086554491C52EA0305F3D10468AA
:100C2000002310A2250707D5A40600D421B1C4696A
:100C300001230DA2641EC46130BCFFF790BE10B545
:100C4000044621461068FFF781FE02462046BDE8B3
:100C500010400023D2E7D21D22F00701D1E9002382
:100C6000CCE70000000000003000000030B5B0F11B
:100C70000A024FEA900E71F100034EEA817EB0EB5A
:100C80000E0061EB91014FEA101E4EEA017E10EB5F
:100C90000E0041EB11114FEA102E4EEA016E10EBDF
:100CA0000E0041EB11214FEA104E4EEA014E10EBBF
:100CB0000E0041EB1141401841F100014FEAD00014
:100CC00040EA41704FEAD10110EB80054FEA810400
:100CD00044EA907444EB01046D1944EB0404521B84
:100CE000A3414FF0000348BF0A3200D530BD401C7D
:100CF00041F1000130BD70472DE9FF4F0C461E4603
:100D00004FF0FF378BB0D2E90001DDF860800A9028
:100D10008A46C1F30A5505B93D46002108464FF001
:100D20000000BAF1000F00F4400005DA00EB80008B
:100D30004FF4400101EA50004FEA9059B9F1010F18
:100D400000DDB9460A9850EA4A000ED044F6105029
:100D5000A5F2FF3545432F14B8F1000F1ED07542A0
:100D6000291E1EDDC9F100021CE0B8F1010F4FF091
:100D7000000001D0302103E0F24305E02154401C83
:100D8000B042FBDB30460022002121540B99C1F810
:100D90000880C1E900200FB0BDE8F08FBD1B6D1CBD
:100DA000DEE74A4600DA694206A800F0DDFB06AB42
:100DB00093E8070003AB83E8070050460A9900F068
:100DC00093FC8DE80700A0F500501F3800900398B1
:100DD000002D0ADD42F21F014A460844002303A900
:100DE0000390684600F0FCFE09E0A0F500504A467A
:100DF0001F38002303A90390684600F006FF8DE822
:100E000007000004000C03D04FF0FF30410800E061
:100E10001046B8F1000F03D00022009215461EE0E4
:100E2000751E05D4FFF722FF303262556D1EF9D5CD
:100E3000B3460122084302D000227F1C04E0207840
:100E4000302801D100227F1E002A099784D01DE09E
:100E5000112D07DAFFF70AFF303262556D1C50EA98
:100E60000102F5D1084302D00098C8B10EE000217C
:100E7000681E05E0235C625C63542254401E491CDA
:100E80008142F7DBAB46A81B401E0990002004F806
:100E90000B000B98099AC0F80880C0E9002B7AE78C
:100EA00011264FF0000857E72DE9F04F8846044619
:100EB000D21D22F0070191B0D1E90001CDE90A016C
:100EC00004F00CFB02460B98C00F01D02D2007E068
:100ED0002068810701D52B2002E0202101EAC00013
:100EE000032A099001D0072A05DB03464146204624
:100EF00000F0FAFA0BE12078800601D5E06900E005
:100F00000620B8F1650F814606D0B8F1660F18D0FB
:100F1000B8F1670F70D131E00020B9F1110F0090E6
:100F200001DB112301E009F101030AAA01A90CA8C0
:100F3000FFF7E2FEDDE90C70002609F101058346AA
:100F400047E001204B4600904FF000470AAA01A954
:100F50000CA8FFF7D1FEDDE90DB00C995D46002627
:100F600010B909F101000D18B9EB050003D4C0F167
:100F7000FF3609F10105A5EB09002BE0B9F1010FDE
:100F800001DA4FF001090020B9F1110F0090484635
:100F900001DD112300E003460AAA01A90CA8FFF70E
:100FA000ABFEDDE90C704D46002683462078000735
:100FB0000AD4AB4500DA5D4601A8012D04DD4119D4
:100FC00011F8011C302907D04F4502DA17F1040F40
:100FD00004DA012082460FE06D1EEEE7002F02DCEE
:100FE000ED1B3E4403E0781CA84200DD7D1CB81BCD
:100FF00000F1010A4FF000472078000703D4AA450A
:1010000001DB4FF0FF3A0021B7F1004F0DF143082B
:101010008DF8431024D002202B23002F01DA7F42C9
:101020002D230A21021EA0F1010000DC5FB197FB15
:10103000F1FC97FBF1F201FB1C7C17460CF1300C24
:1010400008F801CDEEE7A8F1010003702188090539
:1010500001D5452100E06521A0F1010800F8011C3F
:1010600009980FA9A1EB0807FF1D00B10120411944
:1010700001EBEA70A1693844081A401EA06120788B
:10108000C00602D42046FFF717FA099828B1D4E920
:1010900001219047206A401C20622078C00622D59A
:1010A0002046FFF709FA1EE0002E04DBB34502DDFF
:1010B00001A8805D00E03020D4E901219047206A3A
:1010C000401C2062761CAAF101005FEA000A0AD1E6
:1010D00000F006FAC0680168405CD4E9012190473D
:1010E000206A401C2062281EA5F10105DCDC07E017
:1010F000D4E9012118F8010B9047206A401C2062B6
:10110000381EA7F10107F3DC2046FFF7EBF90320B7
:1011100011B041E62DE9F04F04460D46D21D22F0F4
:10112000070089B0D0E900974846394604F0D6F95F
:101130000246F80F01D02D2307E02068810701D572
:101140002B2302E0202101EAC0038DF820300BB1EF
:10115000012000E00020032A824601D0072A04DB98
:101160002946204600F0C0F93FE12078800601D4EE
:101170000D2500E0E569C7F30A560D2D49DA002177
:101180004FEA175B08464FF00000002F00F44000C4
:1011900007DA00EB80004FF4400100EBD07001EA69
:1011A00060008115012901DD4FF0FF3100224FEA77
:1011B000850CBCF1180F06D31346ACF118004FF0A4
:1011C0008052C24003E04FF4801323FA0CF30CF179
:1011D0000C0CBCF1200F04D3ACF1200C09FA0CF07C
:1011E00001E007FA0CF000294FF0004801DD18B9C2
:1011F0000FE00ED140450CD319EB02095F4121B934
:10120000404502D19F4329EA0209BBEB175F00D09A
:10121000761C2088000502D57B48784402E07A4895
:101220007844193808AA302302F80A30037C0AF1FE
:101230000101002E0AF1020A53546A4602DC4FF003
:10124000300101E04FF031014FF001088DF800103E
:1012500002D0A6F2FF3603E059EA470100D06B4EF8
:10126000002D02DC2178090704D54FF002082E2159
:101270008DF80110C44600210BE0C7F303433F0182
:10128000C35C491C6D1E02F80830052908F10108ED
:1012900001DA002DF1DC00210CE000EB1973491C90
:1012A0001B786D1E082902F808304FEA091908F169
:1012B000010801DA002DF0DC21688B0602D516E06A
:1012C000A8F10108E04505DD02EB080313F8013C35
:1012D000302BF5D0B8F1000F09DD02EB080313F84D
:1012E000013C2E2B03D1090701D4A8F10108002DE0
:1012F00005DD3E2102F808106D1E08F10108407C52
:10130000002E02F8080008F1010804DA2D207642C8
:1013100002F8080002E02B2002F808000A214FF42E
:101320007A70864208F101080BDB96FBF0F330334C
:1013300002F8083096FBF0F308F1010800FB136691
:1013400001E0642E0CDB642096FBF0F3303302F8EE
:10135000083096FBF0F308F1010800FB136601E08A
:101360000A2E06DB96FBF1F0303002F8080008F197
:10137000010896FBF1F001FB1060303002F8080024
:10138000A16908F1010808EB050202EB0A00081A3E
:10139000A0612078C00602D42046FFF78DF8216AAC
:1013A00008AE01EB0A00206204E0D4E9012116F83E
:1013B000010B9047BAF1010AF7D22078C00602D596
:1013C0002046FFF779F86E4609E016F8010B3E2833
:1013D0000FD0D4E901219047206A401C2062B8F167
:1013E0000108F2D22046FFF77DF809B00320BDE8DE
:1013F000F08F206A2844206203E0D4E901213020E4
:1014000090476D1EEBD3F8E7A5DB000002FCFFFF61
:1014100010B5436913B1AFF3008001E0FFF752FB51
:10142000012010BD128800F1240182840022C284B0
:101430000122EDE711684FF0FF32E9E7007B00F091
:101440008000704770B516460C46054600F040F81F
:10145000036893F80101012806D0FF2C0FD8185D0E
:1014600068B101202C7070BDD3F8070132462146C7
:1014700003F2071303442846BDE8704018474FF0B5
:10148000FF3070BD754600F0EBF8AE4605006946CA
:10149000534620F00700854618B020B5FEF74EFFF2
:1014A000BDE820404FF000064FF000074FF0000865
:1014B0004FF0000B21F00701AC46ACE8C009ACE8E6
:1014C000C009ACE8C009ACE8C0098D46704700000F
:1014D00010B500F005F8001D10BD00BFE5A4000028
:1014E00000487047100D00202DE9F0411F460446CA
:1014F00003260168072A01F4006004DB08B116A581
:1015000005E016A503E008B115A500E015A521F03A
:1015100010002060A069C01EA0610FB1401EA06134
:101520002046FEF7C9FF4FB1D4E901213846904764
:10153000206A401C2062C01C206206E0206AFAE794
:10154000D4E9012115F8010B9047761EF8D2204608
:10155000FEF7C8FFBDE8F0814E414E006E616E009F
:10156000494E4600696E66002DE9F04781461646F1
:101570008AB0354878440DC88DE80D00324878446B
:10158000801C03AC0DC884E80D0041F69B30084474
:10159000372190FBF1F290FBF1F5A5F1800501FBFD
:1015A00012041B3C02D56442012000E00020DFF859
:1015B00098A080460027FA44AAF1BE0A0EE0E00790
:1015C0000AD03246684607EB470101230AEB810146
:1015D00000F01BFB8DE8070064107F1C002CEED18F
:1015E000194F7F44AE3F19E0E80715D007EB041010
:1015F0000DF1180A90E80E008AE80E00C068F0426B
:1016000001D1981908903246012306A903A800F0D9
:10161000FCFA03AB83E807006D10641C002DE3D1D6
:101620004FF0010332466946B8F1000F03A802D01B
:1016300000F0D6FA01E000F0E8FAC9E90001C9F8C3
:1016400008200AB0BDE8F087DCD8000010B50446D9
:10165000AFF300802046BDE81040FEF754BE000006
:1016600000487047F00C00204FF0013C50F8042B6C
:1016700051F8043B9A4221D1A2EB0C03934313EAA5
:10168000CC1317D150F8042B51F8043B9A4215D1D2
:10169000A2EB0C03934313EACC130BD150F8042BA9
:1016A00051F8043B9A4209D1A2EB0C03934313EA8D
:1016B000CC13DBD04FF00000704700BFD01A01BA46
:1016C000B1FA81F101F0180122FA01F0CB40C1F129
:1016D0002001DBB2C0B2C01A2CFA01F3D11A914337
:1016E00011EAC311E6D170475FEA400C08BF91F0E0
:1016F000000F4FEA8C234FEAC12243EA51514FEACF
:101700001C5018BF00F5F0404FEA300018BF41F000
:1017100000415FEA6C5C00F02980BCF1FF3F08BF2C
:1017200040F080407047130C06BF12044FF0100CBD
:101730004FF0000C130E04BF12020CF1080C130F33
:1017400004BF12010CF1040C930F04BF92000CF1C2
:10175000020CD30F04BF52000CF1010C11464FF0E4
:101760000002A0F11F00A0EB0C00704711F0004F29
:1017700008BF704731F000413FF4D5AF0B0C06BFF6
:1017800009044FF0100C4FF0000C0B0E04BF0902BF
:101790000CF1080C0B0F04BF09010CF1040C8B0FAA
:1017A00004BF89000CF1020CCB0F04BF49000CF1FF
:1017B000010CCCF12003A0EB0C0022FA03F302FA97
:1017C0000CF241EA030100F10100704720F07F4C68
:1017D00080EA030023F07F47ACEB070303F57C535B
:1017E00000F0004003F1FF032DE980494FEA154B5B
:1017F00009B44FEA144325EA0B4E24EA03480FF2DA
:10180000042606EB132749083E785FEA320203FB01
:101810000667C7F5000707FB06F64FEA54374FEA9D
:10182000D64606F1020607FB066CCCF1005C4FEAD7
:101830001C472CEA074C07FB06F40CFB06F504EBEF
:1018400015464FEA961634BF00204FF000404FEA8D
:10185000D13706FB07FC4FEA1C4C0CFB0BF7D21BE5
:1018600003FB0CF761EB07010CFB0EF7B0EB074035
:1018700072EB17420CFB08F734BFA2EB0742B2EB46
:10188000074261EB17414FEA0C444FEA910706FB10
:1018900007FC4FEA1C4C0CFB0BF7B0EBC74072EB9C
:1018A000573203FB0CF734BFA2EBC742B2EBC7427F
:1018B00061EB57310CFB0EF7B0EBC70072EB5772C0
:1018C0000CFB08F734BFA2EBC702B2EBC70261EB17
:1018D0005771039F4FEA816141EA921104EBCC04F6
:1018E0004FEAD1374FEA826206FB07FC42EA9012C8
:1018F0004FEA80604FEA1C4C0CFB0BF7D21B03FB3A
:101900000CF761EB07010CFB0EF7B0EB074072EB35
:1019100017420CFB08F734BFA2EB0742B2EB0742B9
:1019200061EB17414FEA8C554FEA910704EB9C2479
:1019300006FB07FC4FEA1C4C0CFB0BF7B0EBC74057
:1019400072EB573203FB0CF734BFA2EBC742B2EB8A
:10195000C74261EB57310CFB0EF7B0EBC70072EBDF
:1019600057720CFB08F734BFA2EBC702B2EBC702F9
:1019700061EB577115EB4C254FEA816141EA9211F9
:101980004FEA82624FEAD13742EA901206FB07FC27
:1019900044F100044FEA80604FEA1C4C0CFB0BF74B
:1019A000D21B03FB0CF761EB07010CFB0EF7B0EB4E
:1019B000074072EB17420CFB08F734BFA2EB07425B
:1019C000B2EB074261EB174115EB1C154FEA813171
:1019D00041EA92414FEA823242EA90424FEA803035
:1019E0004FEA0C7644F1000448EA03434EEA0B4800
:1019F0004FF0000EB2EB080C71EB030724BF6246F8
:101A000039464EEB0E0E4FF0000B00185241494183
:101A10004BEB0B0BB2EB080C71EB03077BF1000BEC
:101A200024BF624639464EEB0E0E4FF0000B0018F5
:101A3000524149414BEB0B0BB2EB080C71EB030726
:101A40007BF1000B24BF624639464EEB0E0E51EA85
:101A5000020718BF46F0010616EB0E7655F100029C
:101A600054F1000103D5BDE88901BDE80088BDE857
:101A70008901BDE80048B619524141EB0101A3F1CB
:101A80000103704780807F7E7D7C7B7A79787776D2
:101A900076757473727171706F6E6E6D6C6C6B6A4B
:101AA0006A696868676666656464636362616160E9
:101AB000605F5F5E5E5D5D5C5C5B5B5A5A59595866
:101AC00058575756565555555454535352525251D0
:101AD000515050504F4F4F4E4E4D4D4D4C4C4C4B26
:101AE0004B4B4A4A4A49494948484847474747466D
:101AF00046464545454444444443434343424242A9
:101B000042414141002B9C4630D477002BD01CB57C
:101B10004FEA370703B44FF010004FF01001BAF14D
:101B2000000F06D0BCF1000FDCBF40F0080040F011
:101B300008014FF000000FBCBDE810400BF1010B95
:101B4000BBF1010F08BF5FEA170722BF12F10102C4
:101B500011F101014FF0004143F1000300F000409A
:101B600043EA00007047F9D35708D0E746EA064633
:101B700013F1400F4FEA16461FDD13F1200FDFBFB0
:101B800016430A46002120335B42BED0C3F1200732
:101B900046EA064602FA07F74FEA164646EA0706FD
:101BA000C3F1200722FA03F201FA07F721FA03F141
:101BB0004FF0000342EA0702A7E746EA020646EAB8
:101BC00006464FEA164646EA0106BCBF46EA064606
:101BD000360C4FF000034FF000024FF0000194E785
:101BE0002DE9804C9A46934670B491E8380007C8B6
:101BF00031EA400C48BF34EA430C03D5FFF7E6FD59
:101C0000FFF780FFF0BCBDE8008C2DE9804C9A46C0
:101C1000934670B491E8380007C810F0804F08BFB1
:101C200013F0804F03D100F005F8FFF76BFFF0BC15
:101C3000BDE8008C20F07F4780EA030023F07F4C52
:101C400007EB0C03A3F57C5300F00040A3F1FE0367
:101C500092F0000F00F0B38095F0000F00F0778055
:101C60002DE901494FEA11404FEA144621EA0048A4
:101C700000FB06FC24EA064708FB06F607FB08F80B
:101C800000FB07F718EB06484CEB164C4FEA124BDB
:101C900018EB07484FEA15464CEB174022EA0B4E6B
:101CA0000BFB06FC25EA06470EFB06F607FB0EFEBD
:101CB0000BFB07F71EEB064E4CEB164C4FF00006E5
:101CC0001EEB074E4CEB174B18EB0B0840F10000D6
:101CD00018EB0E0B58EB000840F100008F1A4FF084
:101CE00000013CBFC943661B14BFB5EB040C0021C7
:101CF0003CBFC943F61B4FEA17444EEA8E0E27EA53
:101D000004454FEA1C4704FB07622CEA074C05FB1D
:101D100007F70CFB05F604FB0CFC16EB074642EB41
:101D2000174216EB0C4642EB1C421BEB060658EB27
:101D30000202414146EA9E0601D5BDE80189B61975
:101D4000524141EB0101A3F10103BDE801894FEAD2
:101D500014454FEA114724EA054621EA074C05FBE2
:101D600007F406FB07F70CFB06F105FB0CFC11EB77
:101D7000074144EB17444FEA124711EB0C4144EB87
:101D80001C4422EA074C05FB07F206FB07F70CFB95
:101D900006F605FB0CFC16EB074642EB174216EB6A
:101DA0000C4642EB1C456A1854F1000148BF7047CD
:101DB000B619524141EB0101A3F10103704795F0BF
:101DC000000F37D04FEA11424FEA144721EA02468A
:101DD00024EA074C02FB07F106FB07F70CFB06F4AD
:101DE00002FB0CFC14EB074441EB17414FEA15478B
:101DF00014EB0C4441EB1C4125EA074C02FB07F5B0
:101E000006FB07F70CFB06F602FB0CFC16EB07467D
:101E100045EB174516EB0C4645EB1C42121951F1E8
:101E2000000148BF7047B619524141EB0101A3F1CF
:101E3000010370474FEA14454FEA114724EA05466B
:101E400021EA074C05FB07F106FB07F70CFB06F23E
:101E50004FF0000605FB0CFC12EB074241EB17416B
:101E600012EB0C4251EB1C4148BF7047921841EBFA
:101E70000101A3F10103704755494A6822F4403239
:101E80004A604A6843681A434A600268526822F40A
:101E9000807203685A6002685368026943EA02224A
:101EA00003685A600268526822F0407203685A6000
:101EB0000268526883681A4303685A60026892682D
:101EC00022F4006203689A6002689268C3681A4349
:101ED00003689A603F4B826A9A4218D002689268FF
:101EE00022F0706203689A6002689268836A1A43FB
:101EF00003689A600268926822F0405203689A6010
:101F000002689268C36A1A4303689A600BE0026829
:101F1000926822F0706203689A600268926822F008
:101F2000405203689A600268926822F002020368D5
:101F30009A6002689368027E43EA420203689A60EC
:101F40002022125CA2B10268526842F40062036867
:101F50005A600268526822F4604203685A6002685C
:101F60005368426A521E43EA423203685A6005E0EF
:101F70000268526822F4006203685A600268D26AFA
:101F800022F470020368DA620268D36A828B521EFE
:101F900043EA02520368DA620268926822F400722D
:101FA00003689A600268936890F8302043EA4222FE
:101FB00003689A600268926822F4806203689A60FB
:101FC00002689368426943EA822203689A60704714
:101FD000002301400100000F00BFFEE77047000032
:101FE00070B504461D460023B5F5804F13D154F853
:101FF00022300C480340D1E9000640EA06108E6802
:1020000040EA06208E8940EA06408E693043034349
:1020100044F8223003E06FF0704044F822000020C2
:1020200070BD00000000F0CF10B503460022086824
:1020300053F8202012480240D1E901042043CC6823
:1020400020430C6920434C6920438C692043CC69B0
:1020500020430C6A20434C6A20438C6A2043CC6A9C
:102060002043CC6B20430C6B204302438868082834
:1020700001D142F04002086843F82020002010BD42
:102080008000F0FF30B503460024501C53F8204078
:1020900004F04044D1E9000540EA05108D6840EAAB
:1020A00005208D8940EA0545088A401E45EA00550D
:1020B000087D801E45EA00608D6928430443501C5A
:1020C00043F82040002030BD38B502460020009083
:1020D00000BF92F83C00012801D1022038BD012048
:1020E00082F83C0000BF0868092816D91068C0684B
:1020F0000C780A3C04EB44050724AC40A043146868
:10210000E0600C780A3C04EB44048868A040146842
:10211000E46820431468E06013E0106800690C78FC
:1021200004EB44050724AC40A043146820610C78FC
:1021300004EB44048868A0401468246920431468B0
:1021400020614868072817D21068406B0C79641E1C
:1021500004EB84051F24AC40A04314686063088826
:1021600080B20C79641E04EB8404A0401468646B94
:1021700020431468606331E048680D2817D2106866
:10218000006B0C79E41F04EB84051F24AC40A043D2
:1021900014682063088880B20C79E41F04EB84047F
:1021A000A0401468246B20431468206316E0106874
:1021B000C06A0C790D3C04EB84051F24AC40A0439D
:1021C0001468E062088880B20C790D3C04EB84044A
:1021D000A0401468E46A20431468E062194B1A4C6A
:1021E0001068A04206D10868122803D1586840F44C
:1021F00080005860144C1068A0421CD10868102858
:1022000002D00868112816D1586840F400005860C0
:10221000086810280FD10D4800680D4CB0FBF4F091
:1022200000EB80004000009002E00098401E00900B
:1022300000980028F9D100BF002082F83C0000BFC0
:1022400000BF4BE7002301400020014000000020B8
:1022500040420F0001460868C06C704770B50446E4
:1022600000250CB9012070BD1549A06A884200D034
:1022700000BF206C30B9204600F024F800206064D4
:1022800084F83C00206C00F0100088B9206C20F429
:10229000885040F0020020642046FFF7EDFD00204A
:1022A0006064206C20F0020040F00100206400E037
:1022B000012500BF002084F83C0000BF2846D2E77B
:1022C0000100000F10B586B004461B492068884203
:1022D00030D100BF00BF002000901848006840F4D3
:1022E0008070164908600846006800F4807000900D
:1022F00000BF00BF00BF00BF00BF002000900F481C
:102300001438006840F001000C4914390860084690
:10231000006800F00100009000BF00BF00BF08206F
:102320000190032002900120039001A9044800F0CD
:1023300081F900BF06B010BD0020014044380240C2
:102340000000024070B504460D46002620688068F3
:1023500000F48060B0F5806F11D12068806800F4CF
:102360008070B0F5807F0AD1206C40F0200020649E
:1023700000BF002084F83C0000BF012070BD00F0C9
:1023800079FA064618E0681CB0B125B100F072FA7F
:10239000801BA84210D92068006800F002000228C3
:1023A0000AD0206C40F00400206400BF002084F8B4
:1023B0003C0000BF0320E1E72068006800F0020055
:1023C0000228E0D16FF0120021680860206C40F410
:1023D000007020642068806800F04050B8B9207E0A
:1023E000A8B92068C06A00F4700020B12068806835
:1023F00000F4806058B9206C20F480702064206C58
:1024000000F4805018B9206C40F0010020640020D6
:10241000B4E7000008B501460020009000BF91F825
:102420003C00012801D1022008BD012081F83C00B8
:1024300000BF0868806800F00100A0B908688068E3
:1024400040F001000B6898603F4800683F4BB0FBCC
:10245000F3F000EB4000009002E00098401E009076
:1024600000980028F9D10868806800F00100002871
:1024700060D0086C40F20163984340F480700864B7
:102480000868406800F4806028B1086C20F40050AF
:1024900040F480500864086C00F48050B0F5805F10
:1024A00004D1486C20F00600486401E00020486434
:1024B00000BF002081F83C0000BF254A6FF02200D9
:1024C0000B681860506800F01F0018BB214B0868AB
:1024D000984213D0204B0868984204D1101D006820
:1024E00000F01F0050B11D4B086898422AD11848CF
:1024F000001D006800F01F00102823D208688068C3
:1025000000F04050F0B90868806840F080400B68E7
:10251000986017E00F4B0868984213D108688068EC
:1025200000F0405070B90868806840F080400B6847
:10253000986007E0086C40F010000864486C40F0B8
:102540000100486400206FE70000002040420F00B7
:1025500000230140002001400021014000220140F1
:1025600070B50446A56D00F085F9064694F835006F
:10257000022808D08020606500BF002084F8340065
:1025800000BF012070BD2068006820F0160021689F
:1025900008602068406920F0800021684861206C54
:1025A00008B9A06C28B12068006820F008002168F4
:1025B00008602068006820F00100216808600FE0D2
:1025C00000F058F9801B05280AD92020606500BF5B
:1025D000002084F8340000BF032084F83500D1E7E0
:1025E0002068006800F001000028E9D194F85C1030
:1025F0003F208840A86000BF002084F8340000BF5E
:10260000012084F835000020BCE7014691F8350030
:10261000022803D08020486501207047052081F8FA
:1026200035000868006820F001000A68106000208A
:10263000F3E70000F8B502460B4600250024002011
:102640000021DEE0012606FA01F51E6806EA05040F
:10265000AC4275D11E7906F00306012E04D01E7916
:1026600006F00306022E13D190684F000326BE40E9
:10267000B0434F00DE68BE40304390605068012692
:102680008E40B0431E79C6F300168E403043506032
:102690001E7906F00306032E09D0D0684F000326EA
:1026A000BE40B0434F009E68BE403043D0601E79AC
:1026B00006F00306022E13D1CF0802F1200656F8C9
:1026C00027004E07F70E0F26BE40B0434F07FF0E00
:1026D0001E69BE403043CF0802F1200646F82700AD
:1026E00010684F000326BE40B0431E7906F0030673
:1026F0004F00BE40304310605E6806F08056B6F171
:10270000805F7DD100BF00260096404E366846F4BB
:1027100080463E4F3E603E46366806F48046009650
:1027200000BF00BF3A4E8F0856F827008E07370FBC
:102730000F26BE40B043374EB24202D1002624E0FD
:102740005EE0354EB24201D101261EE0334EB24268
:1027500001D1022619E0324EB24201D1032614E023
:10276000304EB24201D104260FE02F4EB24201D1C9
:1027700005260AE02D4EB24201D1062605E02C4E78
:10278000B24201D1072600E008268F073F0FBE4066
:1027900030431F4E8F0846F82700264E3068A0436E
:1027A0005E6806F48036B6F5803F00D12043214EA6
:1027B0003060361D3068A0435E6806F40036B6F51A
:1027C000003F00D120431B4E361D3060361D30685F
:1027D000A0435E6806F48016B6F5801F00D1204342
:1027E000144E08363060361D3068A0435E6806F42B
:1027F0000016B6F5001F00D120430E4E0C36306097
:10280000491C1029FFF41EAFF8BD000044380240F7
:102810000838014000000240000402400008024065
:10282000000C024000100240001402400018024058
:10283000001C0240003C0140024613690B400BB1F2
:10284000012000E00020704710B5426921EA020330
:1028500002EA010443EA0443836110BD0AB18161C5
:1028600001E00B048361704701480068000C704769
:10287000002004E0014800687047000010000020BC
:102880000348006803490978084401490860704713
:10289000100000201800002010B50A48006840F41D
:1028A0000070084908600846006840F480600860CD
:1028B000032000F07FF80F2000F006F800F02AF85F
:1028C000002010BD003C024070B504460E48007860
:1028D0004FF47A71B1FBF0F00C490968B1FBF0F5E7
:1028E000284601F0DBF908B1012070BD102C07D299
:1028F00000222146501E00F01EF80548046001E049
:102900000120F2E70020F0E718000020000000207E
:1029100014000020704701460846002809DB00F03B
:102920001F0301229A4043099B0003F1E023C3F8EF
:10293000002100BF70472DE9F05F80460D46164626
:10294000002702F0E3FD074639462A46334601F0E8
:102950000700C0F1070ABAF1040F02D94FF0040AC8
:1029600001E0C0F1070AD14600F1040ABAF1070FED
:1029700002D24FF0000A01E0A0F1030AD4464FF062
:10298000010A0AFA09FAAAF1010A0AEA020A0AFA8B
:102990000CFA4FF0010B0BFA0CFBABF1010B0BEA3D
:1029A000030B4AEA0B042146404602F0B7FDBDE89E
:1029B000F09F000000BF00F00702064B19684FF6B9
:1029C000FF031940044B0B4343EA0221014B1960FA
:1029D00000BF70470CED00E00000FA0508B50120CB
:1029E0000349086203480068009000BF08BD00006A
:1029F00000000E4200700040F8B504460025002695
:102A0000207800F0010020B9207800F004000428AC
:102A10002FD100205B498866FFF72CFF054606E0B2
:102A2000FFF728FF401B022801D90320F8BD5648B4
:102A30000068C0F3C0600028F2D160688101207A8C
:102A400041EA007050498431086001204D49886690
:102A5000FFF710FF054606E0FFF70CFF401B0228BA
:102A600001D90320E2E748480068C0F3C0600028AD
:102A7000F2D0207800F0020002287DD100BF0020B3
:102A8000009041484030006840F080503E4940315D
:102A900008600846006800F08050009000BF00BF4A
:102AA0003A48006840F4807038490860FFF7E2FE59
:102AB000054606E0FFF7DEFE401B022801D9032091
:102AC000B4E73248006800F480700028F2D02E4845
:102AD0007030006800F440764EB3A08900F4407076
:102AE000B04224D028487030006820F4407601209D
:102AF000274908600020086023487030066000689D
:102B000000F0010098B1FFF7B5FE054608E0FFF7B9
:102B1000B1FE401B41F28831884201D9032085E78C
:102B2000194870300068C0F340000028EFD000BFA3
:102B3000A08900F44070B0F5407F0CD112480830F5
:102B4000006820F4F810134AE168114008430E4968
:102B50000831086007E00C480830006820F4F810DD
:102B6000094908310860084870300068A189C1F33C
:102B70000B010843044900E002E07031086000BF27
:102B8000002053E700004742003802400070004038
:102B9000400E4742FFFCFF0F70B504460D460CB9CE
:102BA000012070BD5848006800F00700A84209D213
:102BB00055490D700846006800F00700A84201D092
:102BC0000120EEE7207800F0020002281DD12078D5
:102BD00000F00400042805D14C48006840F4E0509F
:102BE0004A490860207800F00800082805D14748C5
:102BF000006840F46040454908604448006820F09F
:102C0000F000A168084341490860207800F0010005
:102C1000A8B36068012807D13C4808380068C0F3B1
:102C20004040B8B90120BCE76068022802D0606863
:102C3000032807D1354808380068C0F3406048B918
:102C40000120AEE7314808380068C0F3400008B9F9
:102C50000120A6E72D48006820F0030061680843C2
:102C60002A490860FFF706FE064609E0FFF702FE64
:102C7000801B41F28831884202D9032091E707E0A6
:102C80002248006800F00C006168B0EB810FEDD1C4
:102C90001D48006800F00700A84209D91A490D70C4
:102CA0000846006800F00700A84201D0012078E73C
:102CB000207800F00400042807D11448006820F4AC
:102CC000E050E168084311490860207800F00800EE
:102CD000082808D10D48006820F46040216940EAC6
:102CE000C1000A49086000F03FF808490968C1F3CB
:102CF0000311074A515CC84006490860064800684D
:102D0000FFF7E2FD00204CE7003C0240083802409B
:102D1000CABD00080000002014000020014800681F
:102D2000704700000000002000B5FFF7F7FF0449DE
:102D30000968C1F38221034A515CC84000BD00000C
:102D400008380240DABD000800B5FFF7E7FF044984
:102D50000968C1F34231034A515CC84000BD00001C
:102D600008380240DABD00082DE9F04700240025AC
:102D70000026A1462548006800F00C0020B1042878
:102D800005D008283AD105E0DFF8849039E0DFF873
:102D9000849036E01D48001F006800F03F041B4887
:102DA000001F006800F4800078B11A481749091F15
:102DB0000968C1F38811A0FB017001462246002377
:102DC0003846FDF7CEFA05460EE011480F49091FB7
:102DD0000968C1F38811A0FB017001462246002357
:102DE0003846FDF7BEFA05460848001F0068C0F3E4
:102DF0000140401C4600B5FBF6F902E0DFF81090F8
:102E000000BF00BF4846BDE8F08700000838024018
:102E10000024F40000127A00F8B504460CB9012031
:102E2000F8BD207800F00100002874D0F94800684F
:102E300000F00C0004280DD0F648006800F00C00EB
:102E4000082813D1F348001F006800F48000B0F593
:102E5000800F0BD1EF4808380068C0F340400028CD
:102E600059D06068002856D10120D9E700BF6068BA
:102E7000B0F5803F08D1E7480838006840F480305A
:102E8000E449083908601EE06068B0F5A02F0DD154
:102E9000E0480838006840F48020DE4908390860BE
:102EA0000846006840F4803008600CE0D9480838D3
:102EB000006820F48030D749083908600846006867
:102EC00020F48020086000BF606890B1FFF7D2FC5A
:102ED000054606E0FFF7CEFC401B642801D903201D
:102EE0009EE7CC4808380068C0F340400028F1D085
:102EF00011E0FFF7BFFC054606E0FFF7BBFC401BF7
:102F0000642801D903208BE7C24808380068C0F361
:102F100040400028F1D1207800F0020002285FD163
:102F2000BC48006800F00C0058B1BA48006800F0D6
:102F30000C0008281CD1B748001F006800F480006E
:102F4000B0B9B44808380068C0F3400020B1E06868
:102F5000012801D0012063E7AE480838006820F05E
:102F6000F800216940EAC100AA490839086037E041
:102F7000E06800B30120A8490860FFF77BFC054624
:102F800006E0FFF777FC401B022801D9032047E742
:102F9000A04808380068C0F340000028F1D09D48E0
:102FA0000838006820F0F800216940EAC10099491A
:102FB0000839086014E0002097490860FFF75AFCC0
:102FC000054606E0FFF756FC401B022801D9032006
:102FD00026E7904808380068C0F340000028F1D187
:102FE000207800F0080008282CD16069A8B10120E1
:102FF0008A490860FFF73EFC054606E0FFF73AFC09
:10300000401B022801D903200AE782486C3000687F
:10301000C0F340000028F1D014E000207F49086090
:10302000FFF728FC054606E0FFF724FC401B0228BA
:1030300001D90320F4E677486C300068C0F3400003
:103040000028F1D1207800F00400042870D1002776
:1030500070483830006800F0805090B900BF002000
:1030600000906C483830006840F080506949383131
:1030700008600846006800F08050009000BF00BF64
:1030800001276748006800F48070B0B964480068A0
:1030900040F4807062490860FFF7ECFB054606E0EB
:1030A000FFF7E8FB401B022801D90320B8E65C4883
:1030B000006800F480700028F2D000BFA0680128EA
:1030C00008D154486830006840F001005149683127
:1030D00008601DE0A06805280DD14E4868300068E2
:1030E00040F004004B49683108600846006840F031
:1030F000010008600CE047486830006820F00100DB
:103100004449683108600846006820F004000860FF
:1031100000BFA068A8B1FFF7ADFB054609E0FFF7C7
:10312000A9FB401B41F28831884202D9032077E68F
:1031300026E0384868300068C0F340000028EED030
:1031400013E0FFF797FB054608E0FFF793FB401BF2
:1031500041F28831884201D9032061E62D48683068
:103160000068C0F340000028EFD1012F07D12948A3
:103170003830006820F0805026493831086000BFA0
:10318000A069002845D02348006800F00C000828FA
:103190005DD0A069022845D100201F490866FFF7CD
:1031A00069FB054606E0FFF765FB401B022801D9D5
:1031B000032035E6174808380068C0F3406000284F
:1031C000F1D1D4E907010843616A40EA8111012283
:1031D000A06AC2EB500041EA00412C20005D41EAA8
:1031E00000600C49091F086001200B490866FFF7C1
:1031F00041FB054606E0FFF73DFB401B022801D9D5
:1032000003200DE6034808380068C0F3406000283A
:10321000F1D049E00838024000004742800E4742A2
:1032200000700040002021490866FFF723FB054697
:1032300006E0FFF71FFB401B022801D90320EFE542
:103240001B480068C0F340600028F2D12CE0A06960
:10325000012800D1E4E51648001D0668A069012890
:1032600020D006F48001E06981421BD106F03F01C5
:10327000206A814216D147F6C0703040616AB0EBD7
:10328000811F0FD106F440310122A06AC2EB500029
:10329000B1EB004F06D106F070612C20005DB1EB60
:1032A000006F01D00120BBE50020B9E500004742D6
:1032B00000380240704710B50023046804F1500341
:1032C00003EB81031A6010BD18B5034600BF187FD9
:1032D000012801D1022018BD0120187700BF02206B
:1032E000587700BFCA201C68606253201C68606267
:1032F00000BF1868806800F4806000B3414800682F
:1033000040094FF47A74B0FBF4F06043009000BFC2
:103310000098441E009460B900BFFF201C686062E2
:1033200000BF0320587700BF0020187700BF03209C
:10333000D1E71868C068C0F380000028E8D1186899
:10334000806820F480601C68A0602E4800684009F6
:103350004FF47A74B0FBF4F06043009000BF009823
:10336000441E009460B900BFFF201C68606200BF6B
:103370000320587700BF0020187700BF0320AAE77A
:103380001868C068C0F380000028E8D01868416160
:103390001868806820F007001C68A06018688068C2
:1033A00010431C68A0601848006840F48000164C68
:1033B000206015480830006840F48000124C083442
:1033C00020601868C06800F0800060F490601C689D
:1033D000E0601868806840F480401C68A06018684D
:1033E000806840F480601C68A06000BFFF201C68FB
:1033F000606200BF0120587700BF0020187700BF2F
:1034000000BF68E700000020003C014010B5044602
:1034100000BF02210248FFF717FA00BF10BD0000ED
:103420000010024010B504462068C068C0F3802038
:1034300050B12046FFF7EAFF2068C06800F0800026
:1034400060F490602168C8604FF480000249086011
:103450000120607710BD0000143C014010B5044607
:1034600001A0FDF707F810BD414C41524D2041210C
:103470000D0A000010B5044620688068C0F30030D3
:1034800078B12068C068C0F3002050B12046FFF733
:10349000E5FF2068C06800F0800060F4C07021681B
:1034A000C86020688068C0F3403078B12068C06888
:1034B000C0F3402050B12046FFF7FCFE2068C068F2
:1034C00000F0800060F420702168C8604FF4003084
:1034D000024908600120607710BD0000143C0140E3
:1034E00070B505460B4616460024286840680E490C
:1034F00000EA0104200CD870C4F30420587004F0D2
:103500003F009870C4F3423018705EB9D87801F06B
:1035100037FBD870587801F033FB5870987801F079
:103520002FFB9870002070BD3FFFFF0070B5044670
:103530000B46164600252068806A5860206800699E
:10354000C0F30E009860206800680F4900EA01058A
:10355000C5F305401870C5F30620587005F07F00CC
:10356000987005F48000000CD8705EB9187801F0EE
:1035700007FB1870587801F003FB5870987801F039
:10358000FFFA9870002070BD7F7F7F0010B5044661
:103590000CB9012010BD607F20B9002020772046A3
:1035A00000F060F80220607700BFCA2021684862FE
:1035B00053202168486200BF204601F0F9FA40B16B
:1035C00000BFFF202168486200BF0420607701200F
:1035D000E0E7206880682249084021688860216906
:1035E0006068084361690843216889680843216865
:1035F00088602168E068086120680169208941EAE3
:103600000040216808612068C06820F080002168BF
:10361000C8602068806800F0200060B9204600F093
:10362000A1FA40B100BFFF202168486200BF04201A
:1036300060770120AEE72068006C20F480202168CC
:1036400008642068006CA16908432168086400BF11
:10365000FF202168486200BF01206077002099E7C1
:10366000BFFF8FFF30B591B00546C82401202D491A
:103670000860FFF7B3F900BF002000902A480068F7
:1036800040F08050284908600846006800F08050EB
:10369000009000BF00BF24483030006840F00100B7
:1036A00021493031086004E0601E84B2052002F038
:1036B00071FE34B11C483030006800F00200002870
:1036C000F2D0ACB90820059000200B9001200A90A0
:1036D00005A8FFF7A1FB022001900002049001A8B9
:1036E000FFF78AF945F25101002006F0A5FD14E02C
:1036F0000420059000200B900120079005A8FFF7FB
:103700008BFB02200190C001049001A8FFF774F91F
:1037100045F25001002006F08FFD012001490860AC
:1037200011B030BD3C0E4742403802402DE9F8410F
:1037300003460C461546002600277C4800684009D1
:103740004FF47A71B0FBF1F04843009000BF187F4E
:10375000012802D10220BDE8F8810120187700BFBE
:103760000220587755BB1868806800F0400000B10F
:1037700002E00020E07000BFE06900B900E000BF97
:10378000207801F008FA4FEA0048607801F003FA67
:1037900048EA0028A07801F0FEF948EA0008E0783D
:1037A00048EA004894F8200001F0F5F948EA006082
:1037B000E1690843616940EA01061FE01868806812
:1037C00000F0400000B102E00020E07000BFE069BE
:1037D00000B900E000BF20780004617840EA0120D1
:1037E000A1780843E17840EA014094F8201040EACB
:1037F0000160E1690843616940EA0106A169606806
:1038000040EA010700BFCA201968486253201968BE
:10381000486200BF606AB0F5807F36D11868806862
:1038200020F48070196888601868C06800F0800013
:1038300060F4C0701968C86000BF0098411E009114
:1038400060B900BFFF201968486200BF03205877A5
:1038500000BF0020187700BF03207CE71868C0680D
:1038600000F001000028E8D01868C66118684764B5
:103870001868806840F480701968886018688068EB
:1038800040F480501968886035E01868806820F43A
:103890000070196888601868C06800F0800060F4E3
:1038A00020701968C86000BF0098411E009160B97F
:1038B00000BFFF201968486200BF0320587700BF8F
:1038C0000020187700BF032045E71868C068C0F3E0
:1038D00040000028E8D018680662186887641868F5
:1038E000806840F40070196888601868806840F447
:1038F0000050196888600E48006840F400300C4998
:1039000008600B480830006840F40030084908316E
:10391000086000BFFF201968486200BF0120587787
:1039200000BF0020187700BF00BF14E70000002090
:10393000003C01402DE9F04104460D4616460027A3
:1039400000BF207F012802D10220BDE8F0810120C4
:10395000207700BF022060774EB9687800F0100031
:10396000102804D1687800F0EF000A30687086B93A
:10397000E87801F010F90304687801F00CF943EAE3
:103980000023A87801F007F90343287843EA403779
:1039900009E0E8780004697840EA0120A978084342
:1039A000297840EA413700BFCA2021684862532085
:1039B0002168486200BF204601F0FAF860B100BFFC
:1039C000FF202168486200BF0420607700BF00200C
:1039D000207700BF0120B8E71648384021684860CA
:1039E0002068C06820F080002168C8602068806876
:1039F00000F0200080B9204600F0B4F860B100BFAC
:103A0000FF202168486200BF0420607700BF0020CB
:103A1000207700BF012098E700BFFF20216848629F
:103A200000BF0120607700BF0020207700BF00BFEB
:103A30008BE700003FFFFF002DE9F04104460D46F3
:103A40001646002700BF207F012802D10220BDE8D2
:103A5000F0810120207700BF02206077CEB9206876
:103A6000806800F0400000B102E00020E87000BF74
:103A7000287801F090F80304687801F08CF843EAA4
:103A80000023A87801F087F80343E87843EA004769
:103A900012E02068806800F0400000B102E00020E1
:103AA000E87000BF28780004697840EA0120A9780E
:103AB0000843E97840EA014700BFCA20216848620C
:103AC00053202168486200BF204601F071F860B1C0
:103AD00000BFFF202168486200BF0420607700BF5C
:103AE0000020207700BF0120B1E71D483840216841
:103AF00008602068806820F4802021688860D5E90B
:103B000003010843216889680843216888602068A8
:103B1000C06820F080002168C8602068806800F0DC
:103B2000200080B9204600F01DF860B100BFFF20E2
:103B30002168486200BF0420607700BF0020207722
:103B400000BF012083E700BFFF202168486200BF5B
:103B50000120607700BF0020207700BF00BF76E71C
:103B60007F7F7F0070B5044600252068C06820F084
:103B7000A0002168C860FEF77DFE054607E0FEF75D
:103B800079FE401BB0F57A7F01D9032070BD206813
:103B9000C06800F020000028F1D00020F6E770B5E2
:103BA00004460E4615460CB9012070BD94F8490034
:103BB00028B9002084F84800204600F01DF804F1E0
:103BC00008012068FEF730FA3146A2682068FEF747
:103BD00059FA2946236BD4E90102FEF701FAA168DC
:103BE000206850F8210040F00100A268216841F8E7
:103BF00022000020D9E7000010B586B0044600BFBF
:103C0000002000902248006840F001002049086030
:103C10000846006800F00100009000BF00BF00BF30
:103C2000002000901A480838006840F00800184941
:103C3000083908600846006800F00800009000BFDE
:103C400000BF00BF002000900846006840F0100050
:103C500008600846006800F01000009000BF00BF38
:103C60004CF2037001900220029001200390022088
:103C700004900C20059001A90648FEF7DBFC4FF6E6
:103C80008070019001A90448FEF7D4FC06B010BD75
:103C900038380240000C02400010024070B5044663
:103CA0002546681EB0F1807F01D301200FE0681E19
:103CB0004FF0E02148610F214FF0FF3001F02EFC62
:103CC00000204FF0E021886107200861002070BDCE
:103CD00010B504460CB9012010BD94F83D0028B978
:103CE000002084F83C00204600F025F8022084F8EB
:103CF0003D00211D206800F0B5FF012084F846003A
:103D000000BF84F83E0001213F20015540200155AD
:103D10004120015500BF00BF012084F8420043202C
:103D20000155442001554520015500BF012084F86C
:103D30003D000020D0E77047014691F83D00012882
:103D400001D001207047022081F83D000868C0685A
:103D500040F001000B68D8601A4B086898421BD0ED
:103D60000868B0F1804F17D0174B0868984213D0FD
:103D7000164B086898420FD0154B086898420BD034
:103D8000144B0868984207D0134B0868984203D038
:103D9000124B086898420CD10868806800F007024E
:103DA000062A0CD00868006840F001000B68186013
:103DB00005E00868006840F001000B68186000200A
:103DC000C0E700000000014000040040000800407F
:103DD000000C004000040140004001400018004079
:103DE00070B504460D4615B994F83E000BE0042D5D
:103DF00002D13F20005D06E0082D02D14020005D89
:103E000001E04120005D012801D0012070BD1DB9F5
:103E1000022084F83E000EE0042D03D102213F2051
:103E2000015508E0082D03D102214020015502E090
:103E300002214120015535B1042D0BD0082D10D0A1
:103E40000C2D1CD114E02068C06840F002002168ED
:103E5000C86015E02068C06840F004002168C860B0
:103E60000EE02068C06840F008002168C86007E0E4
:103E70002068C06840F010002168C86000E000BF02
:103E800000BF01222946206800F058FF234920681E
:103E9000884203D022492068884201D1012000E0F5
:103EA000002028B12068406C40F40040216848643C
:103EB0001A49206888421BD02068B0F1804F17D083
:103EC00018492068884213D01749206888420FD0CB
:103ED0001649206888420BD011492068884207D0D3
:103EE00013492068884203D01249206888420CD1C7
:103EF0002068806800F00706062E0CD02068006855
:103F000040F001002168086005E02068006840F08A
:103F1000010021680860002078E7000000000140EF
:103F2000000401400004004000080040000C004074
:103F3000004001400018004030B504460D4635B140
:103F4000042D0BD0082D10D00C2D1CD114E02068AE
:103F5000C06820F002002168C86015E02068C068D1
:103F600020F004002168C8600EE02068C06820F0DE
:103F700008002168C86007E02068C06820F01000D1
:103F80002168C86000E000BF00BF00222946206809
:103F900000F0D4FE23492068884203D022492068DB
:103FA000884201D1012000E0002090B100BF2068CC
:103FB000006A41F21111084050B92068006A891066
:103FC000084028B92068406C20F40040216848640B
:103FD00000BF00BF2068006A41F21111084050B9CB
:103FE0002068006A8910084028B92068006820F01D
:103FF00001002168086000BF1DB9012084F83E005F
:104000000EE0042D03D101213F20015508E0082DC9
:1040100003D101214020015502E001214120015539
:10402000002030BD000001400004014070B504468E
:104030000D46164600BF94F83C00012801D102202D
:1040400070BD012084F83C0000BF36B1042E1BD0A7
:10405000082E31D00C2E5ED145E02946206800F0B4
:104060007FFE2068806940F0080021688861206830
:10407000806920F0040021688861206880692969CE
:1040800008432168886147E02946206800F0A0FEC7
:104090002068806940F40060216888612068806938
:1040A00020F480602168886120688069296940EA7D
:1040B0000120216888612FE02946206800F0C6FEB3
:1040C0002068C06940F008002168C8612068C069A4
:1040D00020F004002168C8612068C069296908438C
:1040E0002168C86118E02946206800F0EBFE2068CE
:1040F000C06940F400602168C8612068C06920F48C
:1041000080602168C8612068C069296940EA01208F
:104110002168C86100E000BF00BF00BF002084F834
:104120003C0000BF00BF8BE710B504460CB901206E
:1041300010BD94F83D0028B9002084F83C002046CA
:1041400000F026F8022084F83D00211D206800F0D0
:1041500089FD012084F8460000BF84F83E0001215B
:104160003F200155402001554120015500BF00BFAF
:10417000012084F842004320015544200155452088
:10418000015500BF012084F83D000020D0E7000069
:1041900010B586B004464049206888427AD100BFF5
:1041A00000BF002000903D48006840F002003B49FD
:1041B00008600846006800F00200009000BF00BFE1
:1041C00000BF00BF00BF00200090344814380068D2
:1041D00040F480703149143908600846006800F4E2
:1041E0008070009000BF00BF00BF00BF00BF002074
:1041F00000900846006840F4807008600846006837
:1042000000F48070009000BF00BF00BF00BF00BF7F
:10421000002000900846006840F48070086008465E
:10422000006800F48070009000BF00BF00BF00BFB6
:1042300000BF002000900846006840F004000860BD
:104240000846006800F00400009000BF00BF00BFF7
:10425000202001900220029001200390022004906F
:104260000320059001A90E48FEF7E4F940200190D3
:1042700001A90B48FEF7DEF98020019001A908484A
:10428000FEF7D8F94FF40070019001A90548FEF738
:10429000D1F900BF06B010BD00040140443802400F
:1042A000002002400008024070B504460D4615B9D2
:1042B00094F83E000BE0042D02D13F20005D06E0A3
:1042C000082D02D14020005D01E04120005D012861
:1042D00001D0012070BD1DB9022084F83E000EE01F
:1042E000042D03D102213F20015508E0082D03D100
:1042F00002214020015502E0022141200155012206
:104300002946206800F01AFD23492068884203D01E
:1043100022492068884201D1012000E0002028B114
:104320002068406C40F40040216848641A492068C5
:1043300088421BD02068B0F1804F17D01849206800
:10434000884213D01749206888420FD01649206848
:1043500088420BD011492068884207D01349206851
:10436000884203D01249206888420CD120688068B6
:1043700000F00706062E0CD02068006840F001000F
:104380002168086005E02068006840F001002168AD
:10439000086000209EE7000000000140000401408A
:1043A0000004004000080040000C004000400140B4
:1043B0000018004030B504460D460022294620680A
:1043C00000F0BCFC23492068884203D022492068C1
:1043D000884201D1012000E0002090B100BF206898
:1043E000006A41F21111084050B92068006A891032
:1043F000084028B92068406C20F4004021684864D7
:1044000000BF00BF2068006A41F21111084050B996
:104410002068006A8910084028B92068006820F0E8
:1044200001002168086000BF1DB9012084F83E002A
:104430000EE0042D03D101213F20015508E0082D95
:1044400003D101214020015502E001214120015505
:10445000002030BD0000014000040140704770475B
:1044600001460022002391F83D2091F83E3042EAB7
:10447000030070472DE9F84F04462068056820685E
:10448000C668206847694FF00009CA4605F00F0961
:10449000B9F1000F0AD105F0200038B106F0200074
:1044A00020B1204600F0F1FDBDE8F88FB9F1000F12
:1044B00072D007F0010018B906F4907000286BD094
:1044C00005F0010030B106F4807018B1206C40F0A6
:1044D0000100206405F0040030B107F0010018B1BC
:1044E000206C40F00200206405F0020030B107F0BB
:1044F000010018B1206C40F00400206405F00800B1
:1045000048B106F0200010B907F0010018B1206C86
:1045100040F008002064206C70B305F0200028B142
:1045200006F0200010B1204600F0AFFD2068406981
:10453000C0F3801A206C00F0080010B9BAF1000F27
:1045400023D0204600F076FD2068406900F040004E
:10455000402816D12068406920F040002168486159
:10456000A06B50B15648A16B0865A06BFEF74DF8E3
:1045700010B1A06B016D88470CE02046FFF76FFF7C
:1045800008E02046FFF76BFF04E02046FFF767FFD7
:104590000020206488E7FFE7206B012879D105F02F
:1045A0001000002875D006F01000002871D000BF60
:1045B000002000902068006800902068406800900B
:1045C00000BF00BF2068406900F04000402839D19A
:1045D000A06B006840681FFA80F8B8F1000F30D077
:1045E000A08D40452DDDA4F82E80A06BC069B0F5EC
:1045F000807F1FD02068C06820F480702168C86068
:104600002068406920F00100216848612068406905
:1046100020F0400021684861202084F83E000020FE
:1046200020632068C06820F010002168C860A06B7B
:10463000FDF796FFA08DE28D801A81B22046FFF72C
:104640000DFF31E7A08DE18D401A1FFA80F8E08D53
:10465000E8B1B8F1000F1AD02068C06820F490705B
:104660002168C8602068406920F001002168486125
:10467000202084F83E00002020632068C06820F0DD
:1046800010002168C86041462046FFF7E7FE0BE7AF
:10469000FFE705F0800030B106F0800018B1204639
:1046A00000F08BFE00E705F0400030B106F040005E
:1046B00018B1204600F0D9FCF6E600BFF4E6000091
:1046C0002150000810B504460CB9012010BDA069A6
:1046D00000B100E000BF94F83D0028B9002084F844
:1046E0003C00204600F028F8242084F83D00206893
:1046F000C06820F400502168C860204600F024FD06
:104700002068006920F490402168086120684069B1
:1047100020F02A00216848612068C06840F40050F9
:104720002168C86000202064202084F83D0084F8BF
:104730003E000020CAE7000010B586B00446654977
:104740002068884255D100BF00BF00200090624819
:10475000006840F01000604908600846006800F0FA
:104760001000009000BF00BF00BF00BF00BF0020CE
:10477000009059481438006840F002005649143936
:1047800008600846006800F00200009000BF00BF0B
:1047900000BF00BF00BF002000900846006840F046
:1047A000020008600846006800F00200009000BFA8
:1047B00000BF00BF40200190022002900120039022
:1047C000022004900720059001A94448FDF732FF1C
:1047D000802001900720059001A94048FDF72AFF9D
:1047E0002520FEF798F8032211462520FEF7A3F8AE
:1047F0006DE03B492068884269D100BF00BF0020BE
:10480000009035481438006840F0040032491439EB
:1048100008600846006800F00400009000BF00BF78
:1048200000BF00BF00BF002000900846006840F0B5
:10483000040008600846006800F00400009000BF13
:1048400000BF00BF00BF00BF002000902248001F33
:10485000006840F400202049091F086008460068ED
:1048600000F40020009000BF00BF00BF08150190B9
:10487000022002900020039002200490082005905E
:1048800001A91848FDF7D6FE4FF400600190022000
:10489000029000200390022004900820059001A9B6
:1048A0001048FDF7C7FE002211463420FEF743F8FA
:1048B0003420FEF730F82068C06840F020002168FE
:1048C000C8602068C06840F010002168C86006B069
:1048D00010BD0000001001404438024000040240B6
:1048E000004C0040000802402DE9F84F04460E46F7
:1048F000174699464FF0000A94F83E0020285FD1F1
:1049000006B117B90120BDE8F88F00BF94F83C004C
:10491000012801D10220F6E7012084F83C0000BF05
:1049200000202064222084F83E0000202063FDF750
:10493000A1FF8246A785E785A068B0F5805F04D116
:10494000206910B90025B04602E035464FF0000856
:1049500000BF002084F83C0000BF29E0534600223D
:1049600020212046CDF8009000F057FD08B103202B
:10497000C9E745B920684068C0F30800A8F80000FE
:1049800008F1020811E0A068B0F5805F03D0A068CC
:1049900028B9206918B920684068287004E02068A8
:1049A000406800F07F0028706D1CE08D401EE0859F
:1049B000E08D0028D2D1202084F83E000020A2E71C
:1049C0000220A0E770B504460D46164694F83E0056
:1049D000202816D105B10EB9012070BD00BF94F892
:1049E0003C00012801D10220F7E7012084F83C00B7
:1049F00000BF0020206332462946204600F0BAFC62
:104A0000EBE70220E9E700001D4A0168914236D138
:104A10001C49098801F4004189BB1A49098801F43D
:104A2000804171B1184909780A2903D00021154A3B
:104A3000118024E01349098841F40041114A118092
:104A40001DE0114909780D2906D10E49098841F464
:104A500080410C4A118012E00B490978094A1288FA
:104A6000C2F30D02094B995406490988491C054AAD
:104A7000118011460988C72901DD00211180704786
:104A8000001001400C0000200E000020E801002072
:104A90002DE9F84F04460E46174699464FF0000A96
:104AA00094F83D0020285AD106B117B90120BDE87D
:104AB000F88F00BF94F83C00012801D10220F6E7EE
:104AC000012084F83C0000BF00202064212084F8ED
:104AD0003D00FDF7CFFE8246A784E784A068B0F5CD
:104AE000805F04D1206910B90025B04602E0354648
:104AF0004FF0000800BF002084F83C0000BF1BE01E
:104B00005346002280212046CDF8009000F085FC1D
:104B100008B10320CBE745B9B8F80000C0F308009E
:104B20002168486008F1020803E02878216848609D
:104B30006D1CE08C401EE084E08C0028E0D15346E0
:104B4000002240212046CDF8009000F066FC08B11C
:104B50000320ACE7202084F83D000020A7E70220D6
:104B6000A5E7704700BFFEE700BFFEE7704770474C
:104B700010B50248FEF77EFC10BD0000880C002036
:104B8000014600BF080900EB8000420001F00F0061
:104B90001044C0B270470146002203E0521CA1F14C
:104BA0000A00C1B20A29F9D2100741EA1060704721
:104BB00070B5044600252068C06800F04000A0B928
:104BC000681E2168C860FDF755FE054607E0FDF741
:104BD00051FE401BB0F57A7F01D9032070BD2068DB
:104BE000C06800F040000028F1D00020F6E7000087
:104BF00010B50248FEF716FC10BD0000880C00201E
:104C0000704710B5FDF73CFE10BD0000034800687A
:104C100040F47000014908607047000088ED00E032
:104C200010B50E480068C06800F0010078B10C496A
:104C300008698047002009490968486200BF64206C
:104C400006490968C86264210448C16000BF6FF06A
:104C5000010002490968086110BD0000A80C00208D
:104C6000F400002010B50268294B98420ED0B0F134
:104C7000804F0BD0274B984208D0274B984205D045
:104C8000264B984202D0264B984203D122F0700264
:104C90004B681A431E4B984220D0B0F1804F1DD074
:104CA0001C4B98421AD01C4B984217D01B4B984271
:104CB00014D01B4B984211D01A4B98420ED01A4B6D
:104CC00098420BD0194B984208D0194B984205D006
:104CD000184B984202D0184B984203D122F44072EC
:104CE000CB681A4322F080034C6943EA0402026055
:104CF0008B68C3620B688362054B984202D0084BF5
:104D0000984201D10B6903630123436110BD000088
:104D1000000001400004004000080040000C00407A
:104D200000040140004001400044014000480140AF
:104D300000180040001C00400020004030B501F089
:104D40001F05012404FA05F3046A9C430462046A03
:104D500001F01F0502FA05F52C43046230BD000086
:104D600030B5056A25F001050562026A4368846969
:104D700024F0700424F003040D682C4322F0020296
:104D80008D682A43104DA84200D103E00F4DA84280
:104D900006D100BF22F00802CD682A4322F00402A7
:104DA000094DA84202D0094DA84207D123F48073CF
:104DB00023F400734D692B438D692B434360846159
:104DC0004D684563026230BD0000014000040140AF
:104DD00030B5056A25F010050562026A43688469EA
:104DE00024F4E04424F440740D6844EA052422F0DD
:104DF00020028D6842EA0512124DA84200D103E05C
:104E0000114DA84207D100BF22F08002CD6842EACE
:104E1000051222F040020B4DA84202D00A4DA842D2
:104E200009D123F4806323F400634D6943EA8503C9
:104E30008D6943EA8503436084614D68856302623E
:104E400030BD0000000001400004014030B5056A9B
:104E500025F480750562026A4368C46924F0700411
:104E600024F003040D682C4322F400728D6842EA9A
:104E70000522124DA84200D103E0114DA84207D1EE
:104E800000BF22F40062CD6842EA052222F480626B
:104E90000A4DA84202D00A4DA84209D123F48053FA
:104EA00023F400534D6943EA05138D6943EA051362
:104EB0004360C4614D68C563026230BD00000140BB
:104EC0000004014030B5056A25F480550562036A87
:104ED0004468C26922F4E04222F440720D6842EA5A
:104EE000052223F400538D6843EA0533084DA84298
:104EF00002D0084DA84204D124F480444D6944EA0C
:104F000085144460C2614D680564036230BD0000D1
:104F100000000140000401401CB53F4800680068E3
:104F2000C0F3C00090B100BF002000903A48006874
:104F300000680090384800684068009000BF00BFDB
:104F400035480068006834480068406832480068A6
:104F50000068C0F3401020B34FF0FF33012201A9D5
:104F60002D48FFF7C1FC2D48B0F80008C0F30E0033
:104F700040F2FF71884215DA9DF804002749B1F824
:104F80000018C1F30E01254A50541046B0F800082D
:104F9000401C1146B1F8001860F30E011046A0F84D
:104FA00000181BE01D48B0F800086FF30E001B4905
:104FB000A1F800089DF80400B1F80018C1F30E0133
:104FC000164A50541046B0F80008401C1146B1F87B
:104FD000001860F30E011046A0F800180E48006893
:104FE0000068C0F30010B0B10C48B0F8000820F41D
:104FF000004000F500400949A1F8000800BF00206A
:105000000090054800680068009003480068406808
:10501000009000BF00BF1CBD540300209803002077
:1050200070B50546AC6B0020E085E0842046FFF7B4
:1050300016FA70BD0168C96821F490710268D160E8
:105040000168496921F0010102685161016B012980
:1050500005D10168C96821F010010268D1602021E2
:1050600080F83E1000210163704710B504462068A7
:10507000C06820F040002168C860202084F83D000E
:105080002046FFF76EFD002010BD70B5044694F871
:105090003E00222856D1A068B0F5805F0CD120696F
:1050A00050B90025A66A20684068C0F30800308027
:1050B000A06A801CA06215E0A56A0026A068B0F571
:1050C000805F03D0A06828B9206918B920684068BB
:1050D000287004E02068406800F07F002870A06A13
:1050E000401CA062E08D401E80B2E08540BB20687D
:1050F000C06820F020002168C8602068C06820F4E3
:1051000080702168C8602068406920F00100216833
:105110004861202084F83E00206B01280AD12068D5
:10512000C06820F010002168C860A18D2046FFF7FC
:1051300095F902E02046FFF767FC0020206370BD70
:105140000020FCE70220FAE72DE9F84F044620682A
:10515000006920F44050E168084321680861216932
:10516000A068084361690843E1690843009020682A
:10517000C06849F20C618843009908432168C860FF
:105180002068406920F44070A169084321684861A3
:1051900076492068884203D075492068884203D147
:1051A000FDF7D2FD814602E0FDF7BEFD8146E069D4
:1051B000B0F5004F6CD102206168A0FB015003469E
:1051C0001920A9FB007001462A463846FBF7C9F8AA
:1051D0006421B0FBF1F04FEA001A02206168A0FBE5
:1051E00001510B461920A9FB00712A463846FBF7EE
:1051F000B8F8834602206168A0FB015003461920DD
:10520000A9FB00712A463846FBF7ABF86421B0FBD6
:10521000F1F000EBC00101EB0010ABEB800032219C
:1052200001EBC0006421B0FBF1F000F0F8000AEBE4
:10523000400A02206168A0FB015003461920A9FB27
:10524000007001462A463846FBF78BF88346022059
:105250006168A0FB015003461920A9FB00712A4692
:105260003846FBF77EF86421B0FBF1F000EBC0019B
:1052700001EB0010ABEB8000322101EBC000642198
:10528000B0FBF1F000F007005044216888606AE04C
:1052900004206168A0FB015003461920A9FB00709F
:1052A00001462A463846FBF75CF8824604206168CE
:1052B000A0FB015003461920A9FB007001462A46B5
:1052C0003846FBF74EF86421B0FBF1F000EBC0016B
:1052D00001EB0010AAEB8000322101EB00106421E9
:1052E000B0FBF1F000F0F00A04206168A0FB01704F
:1052F00003461920A9FB00513A462846FBF731F82E
:105300006421B0FBF1F00AEB001A04206168A0FBF5
:1053100001510B461920A9FB00712A463846FBF7BC
:1053200020F8834604206168A0FB01500346192041
:10533000A9FB007001462A463846FBF712F86421A3
:10534000B0FBF1F000EBC00101EB0010ABEB800013
:10535000322101EB00106421B0FBF1F000F00F00EE
:10536000504421688860BDE8F88F000000100140BB
:105370000014014010B5034699629A85DA85002031
:105380001864222083F83E0000BF002083F83C0010
:1053900000BF1868C06840F480701C68E06018683E
:1053A000406940F001001C6860611868C06840F006
:1053B00020001C68E060002010BD014691F83D000F
:1053C000212828D18868B0F5805F0BD1086948B9D9
:1053D0000A6A1088C0F308000B685860086A801CCD
:1053E000086205E00B6A581C086218780B68586060
:1053F000C88C401E80B2C88458B90868C06820F0C4
:1054000080000B68D8600868C06840F040000B68F6
:10541000D860002070470220FCE72DE9F0410446E7
:105420000D4617469846069E21E0701CF8B12EB135
:10543000FDF720FAA0EB0800B04218D92068C06838
:1054400020F4D0702168C8602068406920F0010015
:1054500021684861202084F83D0084F83E0000BFA8
:10546000002084F83C0000BF0320BDE8F0812068E4
:1054700000682840A84201D1012000E00020B84285
:10548000D3D00020F1E7000070B500240F4D104884
:10549000FEF7F0FF00BF03E0641CAC4200D904E05B
:1054A0000B48FEF7DDFF2028F6D100BF002403E003
:1054B000641CAC4200D906E0012206490448FFF70B
:1054C00081FA0028F4D100BF70BD0000FFFF010089
:1054D000B00200200E00002000BFFEE703B40198D8
:1054E0004100009850EAC12018BF04204A0D18BF9F
:1054F00040F0010040F2FF72B2EB515F08BF40F094
:105500000200012808BF052002B070470248006869
:10551000C0F30220704700000CED00E010B5002839
:1055200004DB0A07130E054A135406E00A07140E9B
:10553000034A00F00F031B1FD45410BD00E400E029
:1055400018ED00E030380A2801D201207047002011
:10555000704700BF70472DE9FF4107460C461546CE
:105560001E4600940195029669463846FCF7ACFD4C
:10557000BDE8FF8110B504460723012221460748F4
:10558000FFF7E9FF0548FCF745FF0A210348FCF750
:10559000D9FE0248FCF75EFE80B210BDDC0B002095
:1055A0002DE9F04107460C460025002608E0384664
:1055B000FFF7E0FF0544052000F0ECFE701CC6B2CA
:1055C000A642F4DBB5FBF4F0BDE8F08110B50D4860
:1055D0000D4908604FF48030486000210A4881601E
:1055E000C160016101760121C161002180F82010B4
:1055F0004162064981620021C16280F83010FCF7E7
:105600002DFE10BD00200140DC0B00200100000F2A
:1056100038B504460D4600BF00BF002000901F486B
:10562000006840F002001D4908600846006800F06C
:105630000200009000BF00BF00BF19481949086070
:105640000846456000218160C4600161816141615B
:10565000FEF76AFD602014490860204604EBD07113
:105660004910114A5160002011468860C8600861E5
:105670004861886100220B48FEF7D8FC04220A49E1
:105680000848FEF7D3FC082207490648FEF7CEFC7F
:105690000C2205490348FEF7C9FC38BD44380240D6
:1056A00000040140240C00206C0C002070B5002583
:1056B0000AE0642206A107A000F0BCF804460CB979
:1056C000002070BD681CC5B20A2DF2DB0120F8E78E
:1056D0004F4B00004154000010B54FF47A7205A101
:1056E00006A000F0A7F804460CB1012010BD002070
:1056F000FCE70000612B6F6B000000002B2B2B617F
:105700000000000000B587B0142102A8FBF7EAF8FA
:1057100000BF00BF002001901F48006840F4807067
:105720001D4908600846006800F48070019000BFC1
:1057300000BF00BF00BF00BF002001900846006806
:1057400040F4807008600846006800F480700190A2
:1057500000BF00BF00BF0815029000200390022088
:105760000490059002A90D48FCF764FF4FF4006017
:1057700002900120039004900220059002A907489E
:10578000FCF758FF00BF0122D1020448FDF766F87C
:1057900000BF07B000BD00003038024000200240CA
:1057A00070B505460D2D2FD2DFE805F0070A0D1064
:1057B0001316191C1F2225282B004FF4966425E090
:1057C0004FF4166422E04FF496541FE04FF4165441
:1057D0001CE04FF4615419E04FF4964416E04FF486
:1057E000164413E04AF2F87410E04FF461440DE0FF
:1057F0004FF496340AE04FF4E13407E04FF4966436
:1058000004E04FF4613401E0032070BD00BFFFF7F6
:1058100079FF204600F082FAFFF75EFFFFF746FFB0
:1058200006460EB10120F0E7014805700020ECE7C4
:10583000240000202DE9F04105460E4614460027BD
:1058400000F0B8FA29460FA000F080FA06B114B9AA
:105850000020BDE8F08110E000F096FA074647B15D
:1058600031463846FAF7C2FF08B10020F1E700F0F0
:10587000A1FA641E012000F08DFD002CECD1022065
:10588000E7E7000025730D0A000000007FB504461D
:10589000022C02DBB4F5806F02DD032004B070BD82
:1058A000224607A16846FAF7F1FD642208A168467E
:1058B000FFF7C0FF05460DB10120EFE70020EDE73F
:1058C00041542B41445054494D3D25640000000093
:1058D0004F4B000030B591B00446224607A101A805
:1058E000FAF7D4FD642208A101A8FFF7A3FF05463B
:1058F00015B1012011B030BD0020FBE741542B4809
:10590000454C4C4F3D2573004F4B000030B585B0E2
:10591000054615B1012D0AD104E00FA104A8FAF73C
:10592000B5FD07E00DA104A8FAF7B0FD02E00320E1
:1059300005B030BD00BF04AA09A16846FAF7A6FD6C
:1059400064220AA16846FFF775FF04460CB10120E6
:10595000EEE70020ECE700004F4E00004F46460007
:1059600041542B4C4544454E3D2573004F4B0000A0
:1059700030B587B0054615B1012D0AD104E00FA15D
:1059800006A8FAF783FD07E00DA106A8FAF77EFD49
:1059900002E0032007B030BD00BF06AA09A101A89C
:1059A000FAF774FD64220CA101A8FFF743FF044637
:1059B0000CB10120EEE70020ECE700004F4E0000A4
:1059C0004F46460041542B4C494E4B504153534592
:1059D0004E3D2573000000004F4B000030B585B0F0
:1059E000054615B1012D0AD104E00FA104A8FAF76C
:1059F0004DFD07E00DA104A8FAF748FD02E00320E1
:105A000005B030BD00BF04AA09A16846FAF73EFD03
:105A100064220BA16846FFF70DFF04460CB101207C
:105A2000EEE70020ECE700004F4E00004F46460036
:105A300041542B4D41585055543D257300000000F2
:105A40004F4B00007FB50446052C1DD2DFE804F063
:105A500003080D12170018A103A8FAF717FD16E0A6
:105A600016A103A8FAF712FD11E015A103A8FAF791
:105A70000DFD0CE013A103A8FAF708FD07E012A141
:105A800003A8FAF703FD02E0032004B070BD00BFD5
:105A900003AA0EA16846FAF7F9FC64220EA1684633
:105AA000FFF7C8FE05460DB10120EEE7642000F0C7
:105AB00071FC0020E9E700004D00000053000000E9
:105AC0004F000000420000004900000041542B4DEF
:105AD0004F44453D257300004F4B000030B591B059
